:1000000000200010150100008D0100009301000088
:1000100000000000000000000000000000000000E0
:100020000000000000000000000000008D01000042
:1000300000000000000000008D0100008D010000A4
:100040008D0100008D0100008D010000ED0F00000A
:100050008D0100008D0100008D0100008D01000068
:100060008D0100008D010000850400008D0100005D
:100070008D0100008D0100008D0100008D01000048
:100080008D0100008D0100008D0100008D01000038
:100090008D0100008D0100008D0100008D01000028
:1000A0008D0100008D0100008D0100008D01000018
:1000B0008D0100008D0100008D0100008D01000008
:1000C00080B500AF0D4B0D4A126880218A431A603B
:1000D0000B4B00221A600B4B01221A600A4B0422C0
:1000E0001A60084B01221A60084B03221A60084B61
:1000F00001221A60C046BD4680BDC0463882044019
:1001000040800440448004400880044070800440E3
:100110007480044080B584B000AFFFF7D1FF164B68
:10012000FB60164BBB60164A144BD31A7B6007E08A
:10013000BB685A1CBA60FA68511CF96012781A70D0
:100140007B685A1E7A60002BF2D10E4BBB600E4AC0
:100150000C4BD31A7B6004E0BB685A1CBA600022C7
:100160001A707B685A1E7A60002BF5D100F048FAAD
:10017000C046BD4604B080BDDB3C0000000000105E
:100180007C0000107C000010F800001080B500AF6B
:10019000FEE780B500AF024B180001F01BF8FEE748
:1001A000203B000080B500AF2B4B2B4A126820216A
:1001B0000A431A60284B284A126810210A431A6021
:1001C000264B264A1268802109020A431A60234BF3
:1001D000224A1268802189000A431A601F4B1F4A75
:1001E000126802210A431A601C4B1C4A126804213F
:1001F0000A431A60194B194A126808210A431A6007
:10020000164B164A1268802189010A431A60134B63
:10021000124A1268802149010A431A600F4B0F4AA3
:100220001268802109010A431A600C4B0B4A1268BC
:100230008021C9000A431A60084B084A12688021CD
:1002400049000A431A60054B044A126804490A40EF
:100250001A60C046BD4680BDC0C10040002000A05D
:10026000FFBFFFFF80B582B000AF0A4B1B687B6009
:10027000084B094A1A60C046064B1A688023DB0502
:100280001340F9D1034B7A681A60C046BD4602B0EC
:1002900080BDC04600C001403B00004080B584B036
:1002A00000AF786039600023FB6039E0244B1B68A5
:1002B0005B685A68013A5A605B68002B0BDA204B86
:1002C0001A681F4B1B685B681900100002F060FC85
:1002D0000300DBB206E01A4B1B685B681A68511C0E
:1002E000196013780B22BA1813700B23FB181B78B4
:1002F0000A2B04D00B23FB181B780D2B06D1FB68AF
:100300007A68D31800221A70FB6814E0FB687A68D8
:10031000D3180B22BA1812781A70FB680133FB60ED
:100320003B685A1EFB689A42C0DCFB687A68D318A7
:1003300000221A703B681800BD4604B080BDC0465C
:100340001800001080B500AF164B164A1268102135
:100350008A431A60144B144A1268802149040A43E4
:100360001A60FFF77FFF114B104A126852005208C3
:100370001A600F4B01221A600E4B0E4A12680E498A
:100380000A401A600B4B0B4A12680C490A401A606B
:10039000064B064A12680A490A431A60C046BD461F
:1003A00080BDC046388204408080044008C00140BF
:1003B00000C00140C0C10040FFFFFEFFFFFFBFFFC4
:1003C0000000048080B500AF094B094A1268802103
:1003D000C9040A431A60C046064B1B68002BFBDAAF
:1003E000044B1B681B091B051B0D1800BD4680BD77
:1003F00008C0014010C0014080B500AF114B114A48
:1004000012688021C9000A431A600F4B0E4A126815
:1004100080210A431A600D4B0D4A1A600D4B0122D0
:100420001A600D4B0D4A1A600D4B01221A600D4BDC
:100430000C4A12688021C9000A431A60C046BD46B2
:1004400080BDC046808004400480044000400040DD
:10045000C05D00800840004010400040008793834A
:100460001840004000E100E080B582B000AF786045
:10047000C0467B685A1E7A60002BFAD1C046BD4642
:1004800002B080BD80B500AF1E4B1B680122134037
:100490001DD01D4B01221A601C4B1B68002B10D174
:1004A0001B4B1B68002B01D000F0DAF9194B1B68BD
:1004B000002B02D000F0D6FB09E0174B00221A7087
:1004C00005E0134B1B68002B01D000F0C9F90D4B60
:1004D0001B680222134002D0104B01221A60094B04
:1004E0001B680422134002D00D4B01221A60054BF9
:1004F0001B680822134002D00A4B01221A60C04632
:10050000BD4680BDF84000400C400040BC000010DB
:10051000980000109C000010080000A01C40004043
:100520002C4000403C40004080B584B000AF786073
:100530007B68032B25D12D4B2C4A126852005208A0
:100540001A602A4B294A126808214A401A60274B30
:10055000264A126826490A431A60FFF733FF030050
:10056000BB60BB68234A53432349180000F0ECFFEB
:100570000300FB601D4B1D4A126808214A401A60A7
:1005800029E07B68092B26D1184B184A12685200C3
:1005900052081A60154B154A1268802189004A409A
:1005A0001A60124B114A126811490A431A60FFF788
:1005B00009FF0300BB60BB680E4A53430E49180095
:1005C00000F0C2FF0300FB60084B084A126880215C
:1005D00089004A401A60094B1B689B68180002F0AA
:1005E00031F8FB681800BD4604B080BD08C001406A
:1005F00000000480E8800000FF0F000018000010D9
:1006000090B58BB000AF0123FB6100237B62FFF745
:10061000C9FDE1235B02180000F07AFCFFF7ECFE55
:10062000FFF790FE62B67A4B1B689B68180002F0D9
:1006300009F8784B01221A7000F0FAFA3B1D0521E7
:100640001800FFF72BFE744A3B1D1100180001F043
:1006500039FF031E00D0F1E7C046704B180002F0CE
:10066000E5F96D4A3B1D1100180001F02BFF031E38
:1006700005D16B4B01221A6000F0A6FBFCE7694B29
:100680001B68132B00DD8DE07B6A01337B627A6A85
:10069000C8235B009A4201DD00237B620320FFF741
:1006A00043FF0300BB610320FFF73EFF0300BB6174
:1006B0000920FFF739FF03007B610920FFF734FFB2
:1006C00003007B61BB69584A934206DD574B1B68A8
:1006D000002B02D1564B01221A607B69524A934289
:1006E00006DD524B1B68002B02D1514B01221A60D0
:1006F000642000F0A3F903003B613B69002B16DD89
:10070000386901F06BFDC02212064A4B01F032FA43
:1007100003000C001800210001F0A2FD031CFB6087
:10072000F968FE20800501F035F8031C3B62424960
:10073000386A01F01BF8031E15D03C4B01221A60E9
:100740003B4B00221A603D49386A01F00FF8031E46
:1007500006D0364B01221A60354B00221A6002E0A7
:10076000324B00221A60314B1B68002B87D1304B73
:100770001B68002B83D1324B1B68012B05D1312024
:1007800002F07EF92E4B00221A602E4B01221A70C5
:100790002D4B00221A702D4B01221A702C4B002277
:1007A0001A706CE77B6A01337B622A4B1B685A1C08
:1007B000284B1A607B6A632B03DC274B01221A70DB
:1007C00016E07B6AC72B03DC234B01221A700FE073
:1007D0007A6A2C23FF339A4203DC1F4B00221A70E3
:1007E00006E07A6A96235B009A4201DD00237B6271
:1007F000184B1B68194A934202DD00F019FA3EE7D4
:10080000134B01221A700F4B01221A7037E7C046B2
:1008100018000010090000A0383B00003C3B00001D
:10082000BC000010B4000010C05D00009800001073
:100830009C0000100B5AF64100C48647002E8647E4
:10084000C00000100C0000A00D0000A0030000A0DC
:10085000020000A0B8000010080000A050C3000073
:1008600080B500AF674B1B685A1C664B1A60664B1D
:100870001B685A1C644B1A6000F0DAF9624B1A6864
:10088000AF231B019A421CDD5F4B00221A605F4BB5
:100890001B685A1C5D4B1A605C4B1B68072B10DDF4
:1008A0005A4B00221A605A4B64221A60594B642238
:1008B0001A60594B00221A60584B1B685A1C574B40
:1008C0001A60504B1B68642B02DD4E4B00221A60ED
:1008D00053494C4B1A684E4B1B6801209A4201DC6D
:1008E0000023181CC3B20B704E49464B1A68494B83
:1008F0001B6801209A4201DC0023181CC3B20B7054
:100900004949404B1A68494B1B6801209A4201DC57
:100910000023181CC3B20B7045493A4B1A68434B6D
:100920001B6801209A4201DC0023181CC3B20B7023
:10093000364B1B68012B09D1354B62221A60354BAF
:1009400062221A60394B64221A6057E02F4B1B68F1
:10095000022B09D12E4B64221A602E4B61221A60A1
:10096000344B01221A7049E0284B1B68032B06D137
:10097000274B5E221A60274B64221A603EE0234B0D
:100980001B68042B06D1224B5E221A60214B5F228A
:100990001A6033E01D4B1B68052B06D11C4B6222ED
:1009A0001A601C4B64221A6028E0184B1B68062B47
:1009B00006D1174B62221A60164B64221A601DE0A2
:1009C000124B1B68072B09D1114B62221A60114B85
:1009D00062221A60184B01221A600FE00B4B1B6851
:1009E000002B0BD10A4B64221A600A4B64221A6056
:1009F000104B00221A700D4B50221A60C046BD46A3
:100A000080BDC0467C0000109000001094000010D3
:100A1000880000108C00001098000010B400001036
:100A20000F0000A0010000A0020000A0AC00001018
:100A30000D0000A0090000A0C000001080B584B027
:100A400000AF7860364B374A1A60374B354A1A6028
:100A5000364B05221A6007E0344B1A6880235B028C
:100A6000134001D0002356E0314B1B78DBB2002B42
:100A7000F2D12E4B00221A60294B2A4A1A602A4BC7
:100A8000284A1A60294B05221A6007E0274B1A688A
:100A900080235B02134001D000233CE0244B1B78F1
:100AA000DBB2002BF2D0214B00221A601C4B1D4AF6
:100AB0001A601D4B1B4A1A601C4B05221A6000234A
:100AC000FB601DE0194B1A6880235B02134001D0C4
:100AD000002320E0164B1B78DBB2002BF2D107E09D
:100AE000124B1A6880235B02134001D0002312E0EE
:100AF0000F4B1B78DBB2002BF2D0FB680133FB609D
:100B0000FA687B689A42E5DB084B00221A60064BC4
:100B10001B68044AD31A1800BD4604B080BDC04605
:100B200014E000E0FFFFFF0018E000E010E000E04C
:100B30000E0000A080B500AF0A4B0B4A1A600B4BA9
:100B400000221A600A4B05221A60C046084B1A6838
:100B500080235B021340F9D0054B00221A60C04687
:100B6000BD4680BD14E000E05FEA000018E000E050
:100B700010E000E080B582B000AF786001E0FFF7E0
:100B8000D9FF7B685A1E7A60002BF8D1C046BD465B
:100B900002B080BD80B500AF074B01221A70074B31
:100BA00000221A70064B01221A70064B00221A709E
:100BB000C046BD4680BDC046020000A0030000A0A4
:100BC0000D0000A00C0000A080B500AF074B002274
:100BD0001A70074B01221A70064B00221A70064B3E
:100BE00001221A70C046BD4680BDC046020000A06A
:100BF000030000A00D0000A00C0000A080B500AF15
:100C0000074B01221A70074B00221A70064B002274
:100C10001A70064B01221A70C046BD4680BDC04600
:100C2000020000A0030000A00D0000A00C0000A026
:100C300080B500AF074B00221A70074B00221A70D4
:100C4000064B00221A70064B00221A70C046BD46A1
:100C500080BDC046020000A0030000A00D0000A05F
:100C60000C0000A080B500AF4D4B1B685A1C4C4BCC
:100C70001A604C4B1B685A1C4A4B1A604A4B0122A3
:100C80001A70484B1A68FA23DB009A4222DD454B62
:100C900000221A60454B1B685A1C444B1A60434B98
:100CA0001B68012B16DD414B00221A60404B1B686C
:100CB000002B03D03E4B00221A6002E03C4B002286
:100CC0001A603C4B00221A60374B00221A70322007
:100CD00001F0D6FE324B1B68642B02DD304B002244
:100CE0001A60324B1B68002B1AD1334A2C4B1B68FD
:100CF0000121462B01DC0023191CCBB213702F4AB3
:100D0000274B1B680121462B01DC0023191CCBB2A9
:100D100013702B4B00221A702A4B00221A703CE0F1
:100D2000224B1B68002B38D0214B1B68002B16D19F
:100D300021491B4B1B68DA17D31ADB0FDBB20B7090
:100D40002049174B1B68DA17D31ADB0FDBB20B7085
:100D50001A4B00221A701A4B00221A701DE0144B15
:100D60001B68012B19D1164A0D4B1B6801210C2B56
:100D700001DC0023191CCBB21370104A084B1B680E
:100D800001210C2B01DC0023191CCBB213700D4B7D
:100D900000221A70084B00221A70C046BD4680BD62
:100DA000A8000010A0000010080000A0A40000107F
:100DB000B00000109C000010020000A00D0000A078
:100DC000030000A00C0000A080B582B000AF3B1D66
:100DD00003211800FFF762FA0A2001F051FE424A8F
:100DE0003B1D1100180001F06DFB031E0CD13F4BA1
:100DF00001221A703E4B00221A703E4B01221A70DB
:100E00003D4B00221A706AE03C4A3B1D110018005D
:100E100001F058FB031E0CD1344B00221A70344BE6
:100E200001221A70334B00221A70334B01221A70C0
:100E300055E0334A3B1D1100180001F043FB031E2F
:100E40000CD12A4B01221A70294B00221A70294B0F
:100E500000221A70284B01221A7040E0294A3B1DDB
:100E60001100180001F02EFB031E0CD11F4B0022B5
:100E70001A701F4B01221A701E4B01221A701E4B52
:100E800000221A702BE01F4A3B1D1100180001F0D0
:100E900019FB031E0CD1154B01221A70144B0022B2
:100EA0001A70144B01221A70134B00221A7016E0AC
:100EB000154A3B1D1100180001F004FB031E0ED162
:100EC000124B01221A60094B00221A70084B0022B3
:100ED0001A70084B00221A70074B00221A70C04685
:100EE000BD4602B080BDC046503B0000030000A0DC
:100EF0000D0000A00C0000A0020000A0543B000068
:100F0000583B00005C3B0000603B00009800001074
:100F100090B583B000AF7860284B284A126808214A
:100F20008A431A60264B264A12688021C9010A4367
:100F30001A60224B214A126808210A431A60214B89
:100F4000204A126808210A431A601F4B1E4A126881
:100F500001210A431A601D4B1C4A1268FF218A4373
:100F60001A601A4B194A126804210A431A60174B77
:100F7000164A126816490A401A60144B134A12683E
:100F80001A60144B01221A60134C7B681B01190074
:100F9000124800F0D9FA03002360114B01221A60B5
:100FA000104B00221A60104B0F4A126805210A43A9
:100FB0001A60C046BD4603B090BDC04604800440E0
:100FC0008080044000E100E0C0C1004000C000405B
:100FD000FF00FFFF948004402040064000879303F9
:100FE0000C400640044006400040064080B582B0F8
:100FF00000AF094B1B687B607B680122134007D060
:10100000064B1B68DAB2064B1100180000F00AF814
:10101000C046BD4602B080BD244006401440064094
:10102000C400001080B582B000AF78600A00FB1CDD
:101030001A707B689B680F2B14D872B67B689B680C
:101040005A1C7B689A607B681B687A68D318FA1C04
:1010500012781A737B681B6801330F221A407B6871
:101060001A6062B6C046BD4602B080BD80B584B08D
:1010700000AF78600F23FB1800221A707B689B6812
:10108000002B15D072B67B689B685A1E7B689A60ED
:101090007B685A680F23FB1879688A18127B1A70CC
:1010A0007B685B6801330F221A407B685A6062B626
:1010B0000F23FB181B781800BD4604B080BD80B517
:1010C00000AF024B9B681800BD4680BDC4000010F5
:1010D00080B584B000AF0200FB1D1A700A4BFB60A4
:1010E000C046FB685A1EFA60002B04D0074B1B68F1
:1010F00004221340F5D0064BFA1D12781A60C04640
:10110000BD4604B080BDC046FFFF00000840064059
:101110001C40064080B582B000AF786007E07B6875
:101120001B781800FFF7D4FF7B6801337B607B6876
:101130001B78002BF3D1C046BD4602B080BD80B500
:1011400000AF044B1800FFF791FF03001800BD46E5
:1011500080BDC046C400001090B585B000AF786077
:1011600039600023FB600B23FB1800221A701AE081
:101170000B23FC18FFF7E3FF030023700B23FB187E
:101180001B78002BF4D00B23FB181B781800FFF7FB
:101190009FFFFB685A1CFA601A007B689B180B22A1
:1011A000BA1812781A703B685A1EFB689A4204DD1E
:1011B0000B23FB181B780A2BDAD1FB68002B04DD0C
:1011C000FB687A68D31800221A70FB681800BD46C5
:1011D00005B090BD80B582B000AF78607B68180024
:1011E000FFF798FF034B1800FFF794FFC046BD467A
:1011F00002B080BD643B000090B589B000AFF860DC
:10120000B9607A601423FB1800221A710323FB6172
:101210001AE0FC69631EFB61FB68B968180000F006
:1012200079FA0B001A00154B9A5C1423FB181A5517
:10123000B968F86800F088F90300FB607B68002B50
:1012400002D07B68013B7B60FB68DA17D31ADB0FA7
:10125000DAB27B68D917CB1ADB0FDBB21343DBB2F0
:10126000002BD6D1FB6901331422BA18D318180009
:10127000FFF750FFC046BD4609B090BD000000100A
:1012800080B582B000AF7860FEE780B582B000AF75
:10129000786001235B421800BD4602B080BD80B576
:1012A00084B000AFF860B9607A60044B0C221A6019
:1012B00001235B421800BD4604B080BDF40000105D
:1012C00080B500AF034B0B221A6001235B4218006C
:1012D000BD4680BDF400001080B582B000AF7860DC
:1012E00039603B68802292015A6000231800BD4695
:1012F00002B080BD80B500AF01231800BD4680BD9F
:1013000080B582B000AF78607B680033022B01D8D3
:10131000012303E0034B09221A6000231800BD4695
:1013200002B080BDF400001080B582B000AF7860DC
:101330003960044B16221A6001235B421800BD4637
:1013400002B080BDF400001080B582B000AF7860BC
:101350003960044B1F221A6001235B421800BD460E
:1013600002B080BDF400001080B584B000AFF8601A
:10137000B9607A6000231800BD4604B080BD80B516
:1013800086B000AF7860164B7B61164B3B61164B05
:101390001B68002B02D1144B7A691A60124B1B6830
:1013A000FB603B69BB60104B1A687B68D218BB6856
:1013B0009A4209D90D4B1800FFF70CFF0C4B0C2279
:1013C0001A6001235B4206E0074B1A687B68D2185B
:1013D000054B1A60FB681800BD4606B080BDC046CC
:1013E0000010001000180010E4000010683B00001E
:1013F000F400001090B589B000AFF860B9607A6071
:101400000023BB61FB68002B1AD10023FB6112E0B3
:101410001723FC18FFF793FE03002370BB685A1CC8
:10142000BA601722BA1812781A70BB690133BB610F
:10143000FB690133FB61FA697B689A42E8DB05E0EE
:10144000054B09221A6001235B4200E0BB691800CA
:10145000BD4609B090BDC046F400001080B582B012
:1014600000AF786039603B68802292015A600023A7
:101470001800BD4602B080BD80B582B000AF786074
:1014800001235B421800BD4602B080BD80B582B02A
:1014900000AF7860044B02221A6001235B421800FF
:1014A000BD4602B080BDC046F400001080B582B0D9
:1014B00000AF7860044B0A221A6001235B421800D7
:1014C000BD4602B080BDC046F400001080B586B0B5
:1014D00000AFF860B9607A60FB68012B02D0022B84
:1014E00012D023E000237B6109E0BB685A1CBA607C
:1014F0001B781800FFF7ECFD7B6901337B617A698B
:101500007B689A42F1DB17E000237B6109E0BB684E
:101510005A1CBA601B781800FFF7DAFD7B690133AB
:101520007B617A697B689A42F1DB05E0054B092211
:101530001A6001235B4200E07B681800BD4606B0DC
:1015400080BDC046F400001003460B437FD4002248
:1015500043088B4274D303098B425FD3030A8B4247
:1015600044D3030B8B4228D3030C8B420DD3FF22B1
:10157000090212BA030C8B4202D31212090265D07F
:10158000030B8B4219D300E0090AC30B8B4201D332
:10159000CB03C01A5241830B8B4201D38B03C01A79
:1015A0005241430B8B4201D34B03C01A5241030BF0
:1015B0008B4201D30B03C01A5241C30A8B4201D3A1
:1015C000CB02C01A5241830A8B4201D38B02C01A4C
:1015D0005241430A8B4201D34B02C01A5241030AC3
:1015E0008B4201D30B02C01A5241CDD2C3098B42A8
:1015F00001D3CB01C01A524183098B4201D38B0125
:10160000C01A524143098B4201D34B01C01A5241C7
:1016100003098B4201D30B01C01A5241C3088B420C
:1016200001D3CB00C01A524183088B4201D38B00F7
:10163000C01A524143088B4201D34B00C01A524199
:10164000411A00D201465241104670475DE0CA0F70
:1016500000D04942031000D34042534000229C4630
:1016600003098B422DD3030A8B4212D3FC2289013A
:1016700012BA030A8B420CD3890192118B4208D310
:10168000890192118B4204D389013AD0921100E072
:101690008909C3098B4201D3CB01C01A5241830986
:1016A0008B4201D38B01C01A524143098B4201D3B3
:1016B0004B01C01A524103098B4201D30B01C01ADE
:1016C0005241C3088B4201D3CB00C01A5241830858
:1016D0008B4201D38B00C01A5241D9D243088B42AE
:1016E00001D34B00C01A5241411A00D20146634651
:1016F00052415B10104601D34042002B00D54942B5
:10170000704763465B1000D3404201B5002000F0F3
:1017100005F802BD0029F8D016E770477047C046AB
:101720008446081C6146FFE71FB500F0E1F9002878
:1017300001D40021C8421FBD10B500F073F940422A
:10174000013010BD10B500F0D3F9002801DB0020F6
:1017500010BD012010BDC04610B500F0C9F9002829
:1017600001DD002010BD012010BDC04610B500F005
:101770007FF9002801DC002010BD012010BDC0460B
:1017800010B500F075F9002801DA002010BD012025
:1017900010BDC046F0B557464E46DE464546E0B55C
:1017A00044024300C60F83B00F1C640A1B0EB246EE
:1017B00053D0FF2B27D08022E400D20414437F2291
:1017C000524290469844002399469B467D027800F9
:1017D000FB0F6D0A000E009324D0FF2846D0802313
:1017E0000021ED00DB041D437F384746381A4F4681
:1017F0000F43BF00B9463300009A874F53404A4613
:10180000BA5801939746002C4ED108239946F733D6
:101810009846FD3B9B467D027800FB0F6D0A000E4B
:101820000093DAD1002D26D1002001213300009A47
:101830007A4F53404246101A4A460A439200BA5819
:101840001D009746009B2C009A468B465B46022B58
:1018500031D15346FF21002438E0002C17D1042356
:1018600099460023984601339B46AFE7FF20002DA1
:101870000BD10221DAE7280000F006FE431F9D404D
:1018800076235B42181A0021AFE70321ADE7200061
:1018900000F0FAFD431F9C4076235B421B1A9846DA
:1018A000002399469B4691E70C239946F3339846CB
:1018B000FC3B9B468AE7032B00D1A5E05546012B54
:1018C00000D081E00123002100242B406402C905DF
:1018D000600ADB070843184303B03CBC90469946B6
:1018E000A246AB46F0BD80240023E403FF21EDE7D0
:1018F000FF210024EAE70123591A1B2966DD019A1A
:10190000134000210024E1E78023DB031C4238D090
:101910001D4251D01C436402640A3300FF21D5E705
:1019200063016C01A3423BD21B2600210138012533
:101930001F0049005B00002F01DB9C4201D81B1BEC
:101940002943013E002EF3D11C00631E9C410C4331
:1019500001007F310029CEDD630704D00F2323402F
:10196000042B00D00434230103D501002C4B80311B
:101970001C40FE290DDD0123019AFF2113400024A4
:10198000A4E78023DB031C436402640A3300FF21C5
:101990009CE70123019AA401640AC9B2134095E7A8
:1019A0001B1B1A260121C2E7009B8B469A46002486
:1019B0004CE76302E5D500258024E4032C43640250
:1019C000640A009BFF2181E70195C1E723002020E5
:1019D000CB40411A8C40611E8C411C43630704D0EC
:1019E0000F232340042B00D00434630105D50123C9
:1019F000019A01211340002468E70123019AA40100
:101A0000640A1340002161E78023DB031C43640266
:101A1000640A5346FF2159E7843B0000C43B0000A1
:101A2000FFFFFFF770B5420045024E024C00C30FA6
:101A30006D0A120E760A240EC90F0120FF2A06D065
:101A4000FF2C03D0A24201D1B54206D070BD002DBB
:101A5000FCD1FF2CFAD1002EF8D18B4206D0012008
:101A6000002AF3D12800451EA841EFE70020EDE74A
:101A7000F0B5420045024C02C30F48006D0A120E39
:101A8000640A000EC90FFF2A1ED0FF2821D0002AA9
:101A90000AD16E426E41F6B200280FD1002C0DD152
:101AA0000020002D09D005E0002801D1002C01D034
:101AB0008B4211D0012158420843F0BD002EF7D0CF
:101AC000012001390843F8E7002DDED00220404212
:101AD000F3E7002CDBD0F9E78242EBDC04DBA54224
:101AE000E8D80020A542E8D20121581E0843E4E7C7
:101AF000F0B542004D024C004602760A120EC30FAA
:101B00006D0A240EC90FFF2A16D0FF2C18D0002A08
:101B10000AD170427041C0B2002C15D0002805D007
:101B2000012001390843F0BD002C13D0994214D094
:101B300001205B421843F6E70220002EF3D1E4E7D0
:101B40000220002DEFD1E2E7002DE7D10020002E8A
:101B5000E9D0EDE7002DE9D1EAE7A24206DCDFDBC0
:101B6000AE4203D80020AE42DAD3DCE7012049427E
:101B70000843D8E7F0B557464546DE464E46E0B541
:101B80004C000E0387B0834692461D008046360BFC
:101B9000640DCF0F002C4FD06F4B9C4235D080236B
:101BA000420F1B04F600134333439946C300984683
:101BB0006A4B00269C460023644403932B031B0BB3
:101BC0009B466B00ED0F50465B0D01955ED0624A5F
:101BD000934253D05A46D1008022400F1204024350
:101BE0000A4393465246D1005C4A9446002263441D
:101BF0003800684084460290E41A16430F2E00D93C
:101C0000B4E0574BB6009B599F46030033439946B7
:101C10006CD100239846023308260393CEE7CB46C7
:101C20004146039A0197022A65D1019B4A4C9C4682
:101C30000023002298466BE00300334399464ED0C0
:101C4000002E00D1BCE1300000F01EFC03000B3B75
:101C50001C2B00DDACE11D22D31A5A460100DA40EC
:101C600008398E401300334399465B468B409846B3
:101C700000233C4C0026241A03939FE751465A4602
:101C8000114329D1002293460232B1E7594601435C
:101C90001ED05B46002B00D19EE1584600F0F4FBBD
:101CA00003000B3B1C2B00DD8FE102005946083A74
:101CB00091408B461D21CB1A5146D9400B00594605
:101CC0000B4351469B469140264B00221B1A8FE73F
:101CD000002301229B468BE75146032288E700231D
:101CE0009846013304260024039367E70323B14693
:101CF00003930C2662E7032A00D15CE2019B012AD0
:101D000000D0E4E113409C460023002400229846C2
:101D100000211203130B0A0D12051A432305124C5E
:101D200040462240134362465B00D2075B081343E0
:101D3000190007B03CBC90469946A246AB46F0BDA0
:101D4000002380229C4612039846034CE0E70023C0
:101D5000014C00229846DBE7FF07000001FCFFFF73
:101D6000043C00000DFCFFFFFFFF0F80D94500D9A8
:101D700039E100D134E1002346464D469A46013C04
:101D80005B460A0E1B021A430B02170C0393130443
:101D90001B0C390028009046019300F0EBFA02007A
:101DA000019B83465A4328003900914600F068FBA6
:101DB000350C09040D43A9450DD95B464544013B4B
:101DC000A84500D93AE1A94500D837E102235B4292
:101DD0009C464544E3444B46EB1A390018000493F3
:101DE00000F0C8FA019B0500434339000498994666
:101DF00000F046FB330409041B0C0B43994509D939
:101E000043446A1E984500D91AE1994500D817E164
:101E1000023D43444A469B1A5A4612042A430399F8
:101E20009346100C0A0C914609045A46090C4E467A
:101E30000D001204120C4543059151437243704347
:101E400052190E0CB218954203D980256D02AC468A
:101E50006044150C09041204090C28185218834216
:101E600000D2CEE000D1C8E01D1A53469E1AB245FA
:101E700092415242AB1A9A46984500D117E1390077
:101E8000180000F077FA019B0500434339005046E3
:101E9000049300F0F5FA04980B04310C19438842BE
:101EA00009D941446B1E884500D907E1884200D812
:101EB00004E1023D4144049BCB1A1800390004930D
:101EC00000F058FA019B824643433900049801937D
:101ED00000F0D6FA01980B043104090C194388422A
:101EE0000DD953464144013B884500D9E8E088427A
:101EF00000D8E5E002235B429C464144E244019B5A
:101F00002D04CE1A51462943059D4F462A000B0445
:101F1000080C1B0C5A4345437B4378435B19170C51
:101F2000FB189D4203D980256D02AC4660441D0C10
:101F300012041B04120C28189B18864200D293E04E
:101F400000D18EE001231943A04BE318002B00DCE5
:101F500099E04A0700D09EE05A46D20106D55A467B
:101F60009B4B1A4080239346DB00E318994A934227
:101F700068DD0123029A984C1A4000239446984643
:101F80000022C5E680224B46120313420AD05B466C
:101F9000134206D11A431203120BAC4688468E4CEC
:101FA000B6E64B461A431203120BBC468A4CAFE608
:101FB00003005A46283B9A4000239146984657E62C
:101FC000584600F061FA203040E603005246283BB4
:101FD0009A400021934677E600F056FA20305FE6FB
:101FE000884500D2C7E64B46DE075D0843465B08DE
:101FF0001E434346DB079A46C2E60025924500D3BE
:1020000033E7039E5946B446E244B245AD416D42C2
:102010004544EB180139984507D2984200D97FE032
:1020200000D1BCE01D1A8B461FE79845FAD1039DED
:102030005545F2D943468B461D1A16E79B46CAE61C
:102040001500E7E65A46C90852070A435B05904661
:102050005C0D5A460123029952021940120B8C461C
:1020600056E6002B00D16FE746444A1EB04529D9F9
:102070001100864200D065E7039A934200D061E7E1
:1020800062E7012149420120C21A382A21DD029B60
:1020900003409C4638E60F220A40042A00D15BE741
:1020A0000A00111D914292415242934454E7474B1A
:1020B000E318002BE5DD01225242F2E71D00FAE6AB
:1020C0009A461CE7B04239D86ED011003AE7029325
:1020D0003AE71F2A3CDC20239B1A0C005846994003
:1020E00098404B1E99415B46D440D340204308435F
:1020F0001A00430709D00F230340042B05D0010029
:10210000081D88429B415B42D21813023AD5012335
:10211000029A01241A400023944698460022F7E5CB
:10212000022149428C46039DE344AC46E244AA4561
:10213000AD416D424544ED182D1A96E68A1E03996D
:102140004D008D42894149424144761803958FE7FD
:102150001F204042C31A5846D8400300202A28D0E6
:1021600040205D46821A954029434A1E91411943F9
:10217000072300220B4009D00F2300220B40080048
:10218000042BBDD1010053075202120BC908194399
:10219000012388460299002419408C46B8E552452F
:1021A000BED88B46002560E6039D9D42C6D3110034
:1021B00062E70025D8E780225B4612031A43019BA1
:1021C0001203120B9C468846034CA1E5FF03000056
:1021D000FFFFFFFEFE070000FF07000070B50028AC
:1021E00030D0C317C4185C40C50F200000F04CF974
:1021F000174B184A1B1AD21A1F2A18DD164AD21A70
:102200009440002224035B05240B5B0D0021100089
:1022100024030A0D240B12052243104C1B052240F7
:1022200013435B00ED075B082B43190070BD2100D1
:1022300091400A000B21081AC4405B052403240BBB
:102240005B0DE3E70025002300240022DEE7C04603
:102250001E0400003304000013040000FFFF0F8081
:10226000F0B54C00640D0B03621C450F5B0A520570
:102270002B43C90FC500520D012A28DD3A4AA61882
:10228000FE2E1BDC002E3EDD80010200501E82412E
:102290006D0F2A43DB0013435A0704D00F221A4064
:1022A000042A00D004338022D2041A405AD00136C6
:1022B000FF2E03D09B015B0AF4B201E0FF24002350
:1022C0005802E405400AC90720430843F0BD002C2A
:1022D00007D01D43F2D08020DB0080040343FF269B
:1022E000DAE72B4303D00523DB08FF2C03D05B0286
:1022F0005B0AE4B2E4E7002B32D08020C003034342
:102300005B025B0ADCE73200173214DB80221E27F7
:1023100012041343BF1B1F2F0FDC144A944664445E
:102320002A00A5402E00A340751EAE41FA4033435B
:1023300013430026B0E70024D5E702225242961B41
:102340001A00F240202F09D0094884466444A34073
:102350002B435D1EAB41002613439DE70023F7E7A7
:102360000023ADE73400BFE780FCFFFF82FCFFFFE6
:10237000A2FCFFFF002243088B4274D303098B4267
:102380005FD3030A8B4244D3030B8B4228D3030C45
:102390008B420DD3FF22090212BA030C8B4202D3E7
:1023A0001212090265D0030B8B4219D300E0090A0F
:1023B000C30B8B4201D3CB03C01A5241830B8B4218
:1023C00001D38B03C01A5241430B8B4201D34B0301
:1023D000C01A5241030B8B4201D30B03C01A524166
:1023E000C30A8B4201D3CB02C01A5241830A8B42EB
:1023F00001D38B02C01A5241430A8B4201D34B02D4
:10240000C01A5241030A8B4201D30B02C01A524137
:10241000CDD2C3098B4201D3CB01C01A52418309EB
:102420008B4201D38B01C01A524143098B4201D325
:102430004B01C01A524103098B4201D30B01C01A50
:102440005241C3088B4201D3CB00C01A52418308CA
:102450008B4201D38B00C01A524143088B4201D3F7
:102460004B00C01A5241411A00D201465241104657
:102470007047FFE701B50020FFF750F902BDC046E5
:102480000029F7D076E770471C2101231B049842EE
:1024900001D3000C10391B0A984201D3000A0839F5
:1024A0001B09984201D30009043902A2105C4018AC
:1024B0007047C04604030202010101010000000050
:1024C0000000000002780B78002A03D001300131AF
:1024D0009A42F7D0D01A7047F7B58A8905000C00E8
:1024E000130760D44B68002B04DC0B6C002B01DC61
:1024F0000020FEBDE76A002FFAD000232E682B6073
:1025000080235B011A4034D0606DA3895B0706D538
:102510006368C01A636B002B01D0236CC01A0200E1
:10252000216A00232800E76AB847A189431C06D125
:102530002B681D2B31D82C4ADA40D3072DD5002328
:10254000636023692360CB0405D5431C02D12B684B
:10255000002B00D16065616B2E600029C8D023007C
:102560004433994202D0280000F0A4F900206063AF
:10257000BFE70123216A2800B847431CC5D12B6857
:10258000002BC2D01D2B01D0162B01D12E60AFE73E
:102590004023A2891343A381ABE740230B430120CF
:1025A000A3814042A5E70F69002FA1D00B680F60FF
:1025B000DB1B01930023920700D14B69A360019BB1
:1025C000002B00DC94E7019B3A00216A2800A66AF0
:1025D000B047002803DC4023A2891343DFE7019BB7
:1025E0003F181B1A0193EAE7010040200B6970B500
:1025F00005000C00002B01D1002070BD002804D084
:102600008369002B01D100F07FF80B4B9C4209D16C
:102610006C680C22A35E002BEED021002800FFF78F
:102620005BFFEAE7054B9C4201D1AC68F1E7044B44
:102630009C42EED1EC68ECE7643C0000843C000076
:10264000443C000010B5011E05D1054B0549186832
:1026500000F006F910BD044B1868FFF7C7FFF9E753
:10266000A43C0000ED250000180000100020704779
:1026700010B5024900F0F4F810BDC046ED25000089
:10268000002310B5040003604360836081814366CA
:10269000C281036143618361190008225C3000F04C
:1026A00000F9054B24626362044BA362044BE362AE
:1026B000044B236310BDC046292C0000552C00009C
:1026C0008D2C0000B92C00000020704770B56825E3
:1026D0004A1E55430E002900743100F035F9041EDE
:1026E00008D000212A00016046600C30A0606832EA
:1026F00000F0D7F8200070BD10B5024B1868FFF746
:10270000B7FF10BDA43C0000836913B50400002B83
:1027100028D18364C3640365134B144A1B68826227
:102720000193984201D101238361200000F020F839
:102730006060200000F01CF8A060200000F018F895
:102740000022E06004216068FFF79AFF012209215E
:10275000A068FFF795FF02221221E068FFF790FFC3
:102760000123A36113BDC046A43C000071260000F4
:10277000F8B51E4B07001E68B369002B02D130006C
:10278000FFF7C2FF4836B4687368013B04D533686D
:10279000002B07D03668F6E70C22A55E002D0DD081
:1027A0006834F2E704213800FFF790FF306000281A
:1027B000F0D10C2304003B602000F8BD0123200071
:1027C0005B42E3810233A38165662560A560656095
:1027D00025616561A561082229005C3000F061F87F
:1027E0006563A563A564E564E6E7C046A43C000014
:1027F000704770477047704710B5034B034918681E
:1028000000F012F810BDC04618000010C9260000E4
:1028100010B5034B0349186800F006F810BDC04618
:10282000180000106D260000F7B54830040000269F
:102830000191002C01D13000FEBDA5686768013F01
:1028400001D52468F5E7AB89012B07D90E22AB5ED1
:10285000013303D02800019B984706436835EEE713
:10286000F7B504000700002601914834002C01D17F
:102870003000FEBD6368A5680093009B013B009398
:1028800001D52468F2E7AB89012B08D90E22AB5E93
:10289000013304D029003800019B9847064368356E
:1028A000EBE703008218934200D17047197001339F
:1028B000F9E7000070B50500002910D00C1F23684F
:1028C000002B00DAE418280000F036FA1D4A1368DD
:1028D000002B05D163601460280000F02EFA70BD53
:1028E000A34209D9216860188342F3D118685B6854
:1028F00041182160EEE713005A68002A01D0A24275
:10290000F9D919685818A0420BD12068091858182D
:1029100019608242E0D110685268411819605A600B
:10292000DAE7A04202D90C232B60D5E721686018B2
:10293000824203D1106852684118216062605C6075
:10294000CAE7C046E8000010032370B5CD1C9D43C4
:10295000083506000C2D1ED20C25A9421DD83000CA
:1029600000F0EAF9254A14682100002919D1244C05
:102970002368002B03D1300000F044F920602900C7
:10298000300000F03FF9431C2CD10C2330003360A1
:1029900000F0D3F903E0002DDFDA0C2333600020D0
:1029A00070BD0B685B1B1AD40B2B03D90B60CC18C2
:1029B000256003E08C420ED163681360300000F0A4
:1029C000BCF9200007220B30231D9043C31AE7D027
:1029D0005A42E250E4E74B6863600C00EEE70C00FB
:1029E0004968C2E70323C41C9C43A042E0D0211ADB
:1029F000300000F007F9431CDAD1C6E7E800001008
:102A0000EC0000100EB417B5041E04D08369002B2F
:102A100001D1FFF779FE06AB059AA168200001936A
:102A200000F0C2F91EBC08BC03B018470FB40B4B32
:102A300013B51C68002C05D0A369002B02D120001F
:102A4000FFF762FE05AB049AA1682000019300F035
:102A5000ABF916BC08BC04B01847C04618000010FB
:102A600070B504000D00002804D08369002B01D14B
:102A7000FFF74AFE2900A268200000F045FC70BD67
:102A8000084B70B51C680500002C05D0A369002B0D
:102A900002D12000FFF738FE2900A268200000F0D4
:102AA00033FC70BD1800001070B50D0009680400FB
:102AB000002901D0FFF7F8FF29002000FFF7FAFEF8
:102AC00070BD0000314B70B51B680400834256D0C6
:102AD000436A002B17D0DB68002B0DD00025636AFA
:102AE000DB68595900294BD10435802DF7D1636A31
:102AF0002000D968FFF7DEFE636A1968002902D05A
:102B00002000FFF7D7FE6169002902D02000FFF7FF
:102B1000D1FE616A002902D02000FFF7CBFEA16B35
:102B2000002902D02000FFF7C5FEE16B002902D08A
:102B30002000FFF7BFFE216C002902D02000FFF724
:102B4000B9FEE16D002902D02000FFF7B3FEA16DB0
:102B5000002902D02000FFF7ADFE616B002902D0F2
:102B60002000FFF7A7FEA369002B08D02000A36A6E
:102B70009847A16C002902D02000FFF795FF70BD97
:102B80000E682000FFF796FE3100ABE7180000103A
:102B900070B505000C00002804D08369002B01D11A
:102BA000FFF7B2FD0F4B9C420ED16C68210028004C
:102BB00000F00AFC002811D16368013B63602368C0
:102BC0005A1C2260187870BD074B9C4201D1AC683A
:102BD000ECE7064B9C42E9D1EC68E7E70120404274
:102BE000F1E7C046643C0000843C0000443C000027
:102BF00010B5034B01001868FFF7CAFF10BDC046AF
:102C000018000010002370B5064C05000800236072
:102C1000FEF7B5FB431C03D12368002B00D02B60CB
:102C200070BDC046F400001070B50C000E25495F61
:102C300000F0AAFB002803DB636D1B18636570BD01
:102C4000A389024A1340A381F9E7C046FFEFFFFFC3
:102C500000207047F8B51F008B8905000C00160096
:102C6000DB0505D50E23C95E0022022300F050F8D3
:102C7000A389054A28001340A38132000E23E15E98
:102C80003B0000F01FF8F8BDFFEFFFFF70B50C0030
:102C90000E25495F00F03CF8A389421C03D1054A88
:102CA0001340A38170BD802252011343A38160654C
:102CB000F8E7C046FFEFFFFF10B50E23C95E00F036
:102CC00015F810BD70B50500080011000022064C73
:102CD00022601A00FEF7FAFB431C03D12368002B85
:102CE00000D02B6070BDC046F4000010002370B50A
:102CF000064C050008002360FEF7C7FA431C03D109
:102D00002368002B00D02B6070BDC046F40000107B
:102D100070B50500080011000022064C22601A0060
:102D2000FEF722FB431C03D12368002B00D02B604D
:102D300070BDC046F400001070477047936810B52E
:102D4000013B9360002B05DA9469A34208DBCBB208
:102D50000A2B05D01368581C10601970C8B210BD3A
:102D600000F0C2FBFBE7F8B506000F001400D51811
:102D7000AC4201D1002007E021783A003000FFF793
:102D8000DDFF0134431CF3D1F8BD936810B5140086
:102D9000002B02D11800536010BD00F07BFC002313
:102DA000A3606360F8E70000F0B59FB006000F0075
:102DB00014000593002804D08369002B01D1FFF78C
:102DC000A3FC7F4B9F425CD17768BB891B0762D510
:102DD0003B69002B5FD0002306AD6B6120336B761F
:102DE0001033AB760294029C2378002B5DD1029BBA
:102DF000E31A04930DD0049B029A39003000FFF7C8
:102E0000B2FF431C00D1CCE06A69049B9446634442
:102E10006B612378002B00D1C3E0012200235242D2
:102E20006A6002A95432521801342B60EB60AB6027
:102E30001370AB6521780522624800F0F9FD631C30
:102E40009C46002835D12968CB0604D5532302AA15
:102E500020309B1818700B0704D553232B2002AA8F
:102E60009B18187023782A2B2CD000200A21099B4C
:102E70002278303A092A00D86BE000282AD009933A
:102E800028E0514B9F4201D1B7689EE74F4B9F42CC
:102E90009BD1F76899E73900300000F085FB0028E6
:102EA00099D0012040421FB0F0BD252B9FD00134A6
:102EB0009AE7444B2968C01A012383400B432B60D7
:102EC0006446B7E7059B181D1B680590002B3ADB8D
:102ED0000993644623782E2B0BD16378621C2A2B2E
:102EE0003FD1059B02341A1D1B680592002B35DB70
:102EF000079321780322364800F09AFD002807D076
:102F0000334B2A68C01A4023834013432B6001349B
:102F10002178631C06222F480293297600F088FD51
:102F2000002844D02C4B002B2FD12968059B072269
:102F3000C90528D59B189343083305936B69039AF9
:102F40009B186B614FE75B42EB6002230B432B60E6
:102F5000BFE74B4301349B18012089E701235B4203
:102F6000C6E7002314000A201A006B60217830396C
:102F7000092903D9002BBCD00792BAE74243013498
:102F800052180123F2E70733D5E705AB00933A0067
:102F9000124B2900300000E000BF0390039B013377
:102FA000CCD1BB895B0600D57BE70B987BE705ABF3
:102FB00000933A00094B2900300000F08BF8ECE751
:102FC000643C0000A83C0000843C0000443C00003D
:102FD000AE3C0000B23C000000000000672D000085
:102FE00010B513000A00010002480068FFF7DCFE7C
:102FF00010BDC04618000010F7B5150001938A688F
:103000000B6900900C00934200DA130022002B6041
:1030100043321278002A01D001332B6023689B06CB
:1030200002D52B6802332B60062723681F4027D068
:10303000230043331B785A1E93412268920630D4F2
:103040002200019943320098089EB047431C25D0C6
:10305000062320682A68E16803400025042B03D179
:103060008D1AEB43DB171D40A3682269934201DDF3
:103070009B1AED180027BD4220D1002010E0013737
:10308000E3682A689B1A9F42D2DA22000123193290
:1030900001990098089EB047431CF0D1012040429E
:1030A000FEBD3020E1184331087021005A1C453123
:1030B0000978A218433202331170C1E722000123BC
:1030C0001A3201990098089EB047431CE6D0013798
:1030D000D1E70000F0B58BB006920A0043320793A7
:1030E000059004920A7E0C00109B6E2A00D18FE09E
:1030F00017D8632A2CD008D8002A00D199E0582A82
:1031000054D026004236327029E0642A01D0692A60
:10311000F7D121681A68080623D5111D19601568B2
:1031200025E0732A00D188E008D86F2A29D0702AB8
:10313000E7D1202209680A43226003E0752A20D0E3
:10314000782ADED122007821453211706C4A30E0B5
:103150000E001A684236111D19601368337001237E
:1031600079E04906D9D5111D19600023D55E002DDF
:1031700003DA2D23049A6D421370624B0A270393DE
:103180002FE020681968050603D5081D18600D6832
:1031900005E04006F9D50D68081D1860ADB2594B21
:1031A000082703936F2A18D00A2716E045310A70C2
:1031B000544A03921A682168101D186015680806A1
:1031C00022D5CB0702D52023194321601027002DDB
:1031D00003D1202322689A43226023000022433334
:1031E0001A706368A360002B5CDB042221689143A2
:1031F0002160002D58D1049E002B64D02600039B33
:1032000042361B7833705EE04806DAD5ADB2D8E7B7
:1032100009681A68080605D5111D196013686269E6
:103220001A6006E04906F7D5111D19601368A28AD5
:103230001A800023049E236154E01A68111D19604E
:10324000166800216268300000F0F2FB002801D00F
:10325000801B6060636823610023049A137041E05F
:103260002369320006990598079DA847431C43D05F
:10327000236800259B070FD4099BE06898423DDA3C
:1032800018003BE022000123193206990598079E99
:10329000B047431C30D00135E368099A9B1A9D4220
:1032A000F0DBE9E7002DA9D0049E28003900FFF7E4
:1032B000E7F8039B013E5B5C280033703900FFF7A1
:1032C00059F8051EF1D1082F09D12368DB0706D56F
:1032D00063682269934202DC3023013E3370049B11
:1032E0009B1B2361079B09AA00932100069B05985D
:1032F000FFF782FE431CB3D1012040420BB0F0BD6A
:10330000CA3C0000B93C000070B506000D00140076
:10331000002804D08369002B01D1FFF7F5F9124B87
:103320009C4211D17468A368013BA360002B05DAAD
:10333000A269934212DBEBB20A2B0FD02368E8B2EA
:103340005A1C22601D7070BD084B9C4201D1B468AC
:10335000E9E7074B9C42E6D1F468E4E72200290044
:10336000300000F0C1F8EEE7643C0000843C00004F
:10337000443C000010B5034B0A0001001868FFF739
:10338000C3FF10BD1800001070B505000800110043
:103390000022064C22601A00FEF72CF8431C03D1D1
:1033A0002368002B00D02B6070BDC046F4000010D5
:1033B000092210B5838913400022092B02D1FFF79F
:1033C00041F90200100010BDF8B505000C000028FE
:1033D00004D08369002B01D1FFF796F93D4B9C4245
:1033E0000AD16C68002363600C23E25E93B29906F5
:1033F0000CD50120404268E0374B9C4201D1AC68BB
:10340000F0E7364B9C42EDD1EC68EBE759074AD424
:10341000D90605D409232B6037331343A381E8E78A
:10342000082633420AD021002800FFF7DFF80028E1
:10343000DFD1A389A060B343A381A0610423A28943
:103440001343A3812369002B03D12100280000F03E
:10345000ABFA0C23E75EBEB2B3070FD00123A38102
:103460001F4B20491868FFF7DFF90923A7811E4089
:103470009E4203D121002800FFF72EF8236922691C
:10348000236028006369216A656AA84702006060BA
:103490000020824219DCA189824217D120230B43EC
:1034A000A381013811E0616B0029CBD023004433A4
:1034B000994202D02800FFF7FDF90020236C6063D9
:1034C00063608342BED0E36B2360F8BD402360603D
:1034D0000B43A3E7643C0000843C0000443C000034
:1034E000A43C0000B1330000F8B505000E00140044
:1034F000002804D08369002B01D1FFF705F9224B86
:103500009C422DD16C68A369A360A3891B0731D5A8
:103510002369002B2ED023682269F7B2981A6369B9
:10352000F6B2984205DB21002800FFF75FF800287B
:1035300026D1A3680130013BA36023685A1C226096
:103540001F706369984204D0A389DB071AD50A2E3D
:1035500018D121002800FFF749F8002812D00FE009
:103560000A4B9C4201D1AC68CDE7094B9C42CAD1C1
:10357000EC68C8E72100280000F016F80028CAD03F
:10358000012676423000F8BD643C0000843C000017
:10359000443C000010B5034B0A0001001868FFF717
:1035A000A3FF10BD18000010364B70B51D68060053
:1035B0000C00002D05D0AB69002B02D12800FFF7CD
:1035C000A3F8314B9C420FD16C680C23E25E93B29E
:1035D00019072DD4D90611D40923012033603733BC
:1035E0001343A381404270BD284B9C4201D1AC687B
:1035F000EBE7274B9C42E8D1EC68E6E75B0713D585
:10360000616B002908D023004433994202D0300076
:10361000FFF750F9002363632422A3899343A38116
:1036200000236360236923600823A2891343A381D5
:103630002369002B0BD1A0218022A389890092004D
:103640000B40934203D02100300000F0ADF901237C
:10365000A289134011D00023A36063695B42A36178
:10366000002023698342BED10C23E25E1306BAD543
:1036700040231343A3810138B5E7920700D463695F
:10368000A360EDE718000010643C0000843C0000DB
:10369000443C0000F0B5936887B002900C0017001E
:1036A000002B02D1002007B0F0BD8B891B0723D56A
:1036B0000B69002B20D002253B680193A3891D4094
:1036C0002BD000231D000093002D1ED09F4A2B00FD
:1036D000954200D91300009A216A0298A66AB04761
:1036E000002800DC92E0009B2D1A1B180093BB6899
:1036F000181AB860E8D1D5E721000298FFF754FF07
:103700000028D8D001204042CDE7019B1B680093E0
:10371000019B5D6808330193D6E70122134047D02F
:103720002800039500950592009B002B00D1E9E04D
:1037300000280BD11A000A21039800F079F9009BA8
:103740005D1C002802D0039B0130C51A009B049524
:103750009D4200D90493206822696369904200D891
:10376000DBE0A2689E18049AB24200DCD5E003991F
:10377000320000F071F9236821009B192360029840
:10378000FEF734FF002841D1AD1B059805D121007B
:103790000298FEF72BFF002838D1039B9B19039357
:1037A000009B9B1B0093BB689E1BBE60BCD179E74E
:1037B00003930093009B002B2DD08023A2899B00B4
:1037C000A5681A426DD0009BAB4243D39023DB0027
:1037D0001A423CD003262169236800985B1A04939F
:1037E00063695E43F30F9E19049B761001331B1827
:1037F000B34200D91E00530544D531000298FFF7AB
:10380000A3F8051E11D10C23029A13604023A2894C
:103810001343A38176E7019B1B680393019B5B68BD
:103820000093019B08330193C4E7049A216900F0D7
:103830000AF9A389464A1A4080231343A381049BB3
:103840002561ED1825606661009DF61AA660009B53
:10385000AB4200D2009D2A000399206800F0FCF8DA
:10386000A3685B1BA36023685D192560009D039B13
:103870005B190393009B5B1B0093BB685D1BBD60E2
:1038800098D10FE73200029800F0F8F8051ED6D163
:1038900021690298FFF70EF88022A3899343A38140
:1038A000B1E720682369984203D86669009BB34258
:1038B00016D2009B9D4200D91D002A00039900F0FA
:1038C000CBF8A36822685B1B5219A3602260002B0F
:1038D000CDD121000298FEF789FE0028C7D095E7D8
:1038E00000981C4B984200D918003100FDF72CFEBF
:1038F0003300A56A4343039A216A0298A847051E2C
:10390000B5DC83E7019B00201B680393019B5B6888
:103910000093019B0833019306E7049A9A4208DB5F
:10392000A66A039A216A0298B047061E00DD2BE7BB
:103930006CE7049A039900F08FF8049AA3681600C4
:103940009B1AA36023689B1823601DE700FCFF7F80
:103950007FFBFFFFFFFFFF7F70B50E001D000E23F2
:10396000C95E90B01400002907DA00232B60B389E8
:103970001B0611D48023DB000FE001AA00F0A4F89D
:103980000028F2DBF022029B12021340054A9B182A
:103990005A4253412B60EDE740230020236010B0D2
:1039A00070BDC04600E0FFFFF7B502268B89050019
:1039B0000C00334206D023004733236023610123E8
:1039C0006361F7BD01AB6A46FFF7C6FF00990700C8
:1039D0002800FEF7B9FF002808D10C22A35E9A0543
:1039E000EFD4032293431E43A681E4E70F4BAB625F
:1039F0008023A28920601343A381009B206163611F
:103A0000019B002B0DD00E23E15E280000F06EF824
:103A1000002806D00322A38993431A0001231343ED
:103A2000A381A0893843A081CBE7C046712600005E
:103A3000C9B28218904201D10020704703788B42AE
:103A4000FBD00130F6E7002310B59A4200D110BD3B
:103A5000CC5CC4540133F8E710B5884202D98B1806
:103A6000984208D300239A4207D0CC5CC454013357
:103A7000F9E78B5C8354013AFBD210BDF8B507001F
:103A80000D001600002905D11100FEF75DFF0400AE
:103A90002000F8BD002A03D1FEF70CFF3400F7E741
:103AA00000F036F82C008642F2D931003800FEF7DB
:103AB0004BFF041EECD029003200FFF7C4FF2900A1
:103AC0003800FEF7F7FEE3E7002370B5064C05006B
:103AD000080011002360FDF7FFFB431C03D123689E
:103AE000002B00D02B6070BDF4000010002370B5D7
:103AF000064C050008002360FDF702FC431C03D1BF
:103B00002368002B00D02B6070BDC046F40000106D
:103B10000B1F1B68181F002B01DA0B58C0187047C9
:103B2000556E657870656374656420696E7465723E
:103B3000727570742E0000006D000000736C656972
:103B4000727567616F6965706468677069650000A8
:103B500077000000730000006100000064000000B6
:103B6000650000000D0A00004865617020616E6408
:103B700020737461636B20636F6C6C6973696F6E23
:103B80000A00000020190000F018000002190000CF
:103B90004418000002190000E61800000219000095
:103BA00044180000F0180000F0180000E6180000AB
:103BB000441800004C1800004C1800004C1800007D
:103BC00008190000F0180000F0180000C4180000E8
:103BD000A8190000C4180000E6180000C41800006E
:103BE000A8190000F0180000F0180000E618000006
:103BF000A81900004C1800004C1800004C180000D8
:103C0000B21900006C1D00004E1D0000081D0000D0
:103C1000261C0000081D0000401D0000081D0000BB
:103C2000261C00004E1D00004E1D0000401D00001F
:103C3000261C00001E1C00001E1C00001E1C000094
:103C4000841F0000000000000000000000000000D1
:103C50000000000000000000000000000000000064
:103C60000000000000000000000000000000000054
:103C70000000000000000000000000000000000044
:103C80000000000000000000000000000000000034
:103C90000000000000000000000000000000000024
:103CA000000000001C000010232D302B2000686C49
:103CB0004C0065666745464700303132333435364F
:103CC0003738394142434445460030313233343588
:0B3CD0003637383961626364656600B6
:103CDB003031323334353637383941424344454637
:103CEB0000000000E00000101C00001000000000AD
:103CFB00643C0000843C0000443C000000000000D9
:103D0B0000000000000000000000000000000000A8
:103D1B000000000000000000000000000000000098
:103D2B000000000000000000000000000000000088
:103D3B000000000000000000000000000000000078
:0C3D4B000000000000000000000000006C
:04000003000000C039
:00000001FF
