:1000000000200010150100008D0100008D0100008E
:1000100000000000000000000000000000000000E0
:100020000000000000000000000000008D01000042
:1000300000000000000000008D0100008D010000A4
:100040008D0100008D0100008D010000AD04000055
:100050008D0100008D0100008D0100008D01000068
:100060008D0100008D0100008D0100008D01000058
:100070008D0100008D0100008D0100008D01000048
:100080008D0100008D0100008D0100008D01000038
:100090008D0100008D0100008D0100008D01000028
:1000A0008D0100008D0100008D0100008D01000018
:1000B0008D0100008D0100008D0100008D01000008
:1000C00080B500AF0D4B0D4A126880218A431A603B
:1000D0000B4B00221A600B4B01221A600A4B0422C0
:1000E0001A60084B01221A60084B03221A60084B61
:1000F00001221A60C046BD4680BDC0463882044019
:1001000040800440448004400880044070800440E3
:100110007480044080B584B000AFFFF7D1FF164B68
:10012000FB60164BBB60164A144BD31A7B6007E08A
:10013000BB685A1CBA60FA68511CF96012781A70D0
:100140007B685A1E7A60002BF2D10E4BBB600E4AC0
:100150000C4BD31A7B6004E0BB685A1CBA600022C7
:100160001A707B685A1E7A60002BF5D100F0CCF82B
:10017000C046BD4604B080BDBC16000000000010A3
:1001800000000010000000101C00001080B500AF3F
:10019000FEE7C04680B500AF0A4B0B4A1A600B4B16
:1001A00000221A600A4B05221A60C046084B1A68E2
:1001B00080235B021340F9D0054B00221A60C04631
:1001C000BD4680BD14E000E05FEA000018E000E0FA
:1001D00010E000E080B582B000AF786001E0FFF78A
:1001E000D9FF7B685A1E7A60002BF8D1C046BD4605
:1001F00002B080BD80B584B000AF7860364B374A1E
:100200001A60374B354A1A60364B05221A6007E0F0
:10021000344B1A6880235B02134001D0002356E060
:10022000314B1B78DBB2002BF2D12E4B00221A602F
:10023000294B2A4A1A602A4B284A1A60294B052260
:100240001A6007E0274B1A6880235B02134001D035
:1002500000233CE0244B1B78DBB2002BF2D0214B77
:1002600000221A601C4B1D4A1A601D4B1B4A1A6063
:100270001C4B05221A600023FB601DE0194B1A6815
:1002800080235B02134001D0002320E0164B1B7833
:10029000DBB2002BF2D107E0124B1A6880235B021D
:1002A000134001D0002312E00F4B1B78DBB2002B70
:1002B000F2D0FB680133FB60FA687B689A42E5DBA9
:1002C000084B00221A60064B1B68044AD31A180018
:1002D000BD4604B080BDC04614E000E0FFFFFF0053
:1002E00018E000E010E000E0010000A080B500AFE1
:1002F000044B044A126802218A431A60C046BD4674
:1003000080BDC046002000A090B585B000AFE123BD
:100310005B02180000F05CF862B6FFF7E7FFFA2313
:100320005B001800FFF756FF234B180000F052F94E
:100330006420FFF75FFF0300FB60FB68002B32DDEA
:10034000F86800F08FFFC02212061C4B00F056FC2C
:1003500003000C001800210000F0C6FF031CBB6066
:10036000B968FE20800500F0E1FA031C7B60144BA5
:10037000180000F02FF9786800F020FC0300072235
:100380000A21180000F098F90E4B180000F022F92D
:10039000FB6806220A21180000F08EF90A4B1800AB
:1003A00000F018F903E0094B180000F013F9C82019
:1003B000FFF710FFBCE7C0464C1500000B5AF64192
:1003C000B0150000B4150000C0150000C4150000F1
:1003D00090B583B000AF7860284B284A1268082196
:1003E0008A431A60264B264A12688021C9010A43B3
:1003F0001A60224B214A126808210A431A60214BD5
:10040000204A126808210A431A601F4B1E4A1268CC
:1004100001210A431A601D4B1C4A1268FF218A43BE
:100420001A601A4B194A126804210A431A60174BC2
:10043000164A126816490A401A60144B134A126889
:100440001A60144B01221A60134C7B681B011900BF
:10045000124800F07FF903002360114B01221A605B
:10046000104B00221A60104B0F4A126805210A43F4
:100470001A60C046BD4603B090BDC046048004402B
:100480008080044000E100E0C0C1004000C00040A6
:10049000FF00FFFF94800440204006400087930344
:1004A0000C400640044006400040064080B582B043
:1004B00000AF094B1B687B607B680122134007D0AB
:1004C000064B1B68DAB2064B1100180000F00AF860
:1004D000C046BD4602B080BD2440064014400640E0
:1004E0000000001080B582B000AF78600A00FB1CED
:1004F0001A707B689B680F2B14D872B67B689B6858
:100500005A1C7B689A607B681B687A68D318FA1C4F
:1005100012781A737B681B6801330F221A407B68BC
:100520001A6062B6C046BD4602B080BD80B584B0D8
:1005300000AF78600F23FB1800221A707B689B685D
:10054000002B15D072B67B689B685A1E7B689A6038
:100550007B685A680F23FB1879688A18127B1A7017
:100560007B685B6801330F221A407B685A6062B671
:100570000F23FB181B781800BD4604B080BD80B562
:1005800000AF024B9B681800BD4680BD0000001004
:1005900080B584B000AF0200FB1D1A700A4BFB60EF
:1005A000C046FB685A1EFA60002B04D0074B1B683C
:1005B00004221340F5D0064BFA1D12781A60C0468B
:1005C000BD4604B080BDC046FFFF000008400640A5
:1005D0001C40064080B582B000AF786007E07B68C1
:1005E0001B781800FFF7D4FF7B6801337B607B68C2
:1005F0001B78002BF3D1C046BD4602B080BD80B54C
:1006000000AF044B1800FFF791FF03001800BD4630
:1006100080BDC0460000001090B585B000AF786086
:1006200039600023FB600B23FB1800221A701AE0CC
:100630000B23FC18FFF7E3FF030023700B23FB18C9
:100640001B78002BF4D00B23FB181B781800FFF746
:100650009FFFFB685A1CFA601A007B689B180B22EC
:10066000BA1812781A703B685A1EFB689A4204DD69
:100670000B23FB181B780A2BDAD1FB68002B04DD57
:10068000FB687A68D31800221A70FB681800BD4610
:1006900005B090BD80B582B000AF78607B6818006F
:1006A000FFF798FF034B1800FFF794FFC046BD46C5
:1006B00002B080BDE415000090B58DB000AFF860C9
:1006C000B9607A601823FB18214A13CA13C3116852
:1006D000196012791A711023FB1800221A71032372
:1006E000FB621BE0FC6A631EFB62FB68B9681800D2
:1006F00000F016F90B001A001823FB189A5C10235F
:10070000FB181A55B968F86800F024F80300FB607C
:100710007B68002B02D07B68013B7B60FB68DA17AB
:10072000D31ADB0FDAB27B68D917CB1ADB0FDBB237
:100730001343DBB2002BD5D1FB6A01331022BA1868
:10074000D3181800FFF746FFC046BD460DB090BD58
:10075000E815000003460B437FD4002243088B4278
:1007600074D303098B425FD3030A8B4244D3030B38
:100770008B4228D3030C8B420DD3FF22090212BAFD
:10078000030C8B4202D31212090265D0030B8B4279
:1007900019D300E0090AC30B8B4201D3CB03C01A63
:1007A0005241830B8B4201D38B03C01A5241430B3E
:1007B0008B4201D34B03C01A5241030B8B4201D32E
:1007C0000B03C01A5241C30A8B4201D3CB02C01A99
:1007D0005241830A8B4201D38B02C01A5241430A11
:1007E0008B4201D34B02C01A5241030A8B4201D300
:1007F0000B02C01A5241CDD2C3098B4201D3CB01A7
:10080000C01A524183098B4201D38B01C01A524155
:1008100043098B4201D34B01C01A524103098B4259
:1008200001D30B01C01A5241C3088B4201D3CB0044
:10083000C01A524183088B4201D38B00C01A524127
:1008400043088B4201D34B00C01A5241411A00D2D7
:1008500001465241104670475DE0CA0F00D0494240
:10086000031000D34042534000229C4603098B42B0
:100870002DD3030A8B4212D3FC22890112BA030A38
:100880008B420CD3890192118B4208D389019211BA
:100890008B4204D389013AD0921100E08909C3093F
:1008A0008B4201D3CB01C01A524183098B4201D341
:1008B0008B01C01A524143098B4201D34B01C01A2C
:1008C000524103098B4201D30B01C01A5241C308A4
:1008D0008B4201D3CB00C01A524183088B4201D313
:1008E0008B00C01A5241D9D243088B4201D34B002E
:1008F000C01A5241411A00D20146634652415B1070
:10090000104601D34042002B00D549427047634650
:100910005B1000D3404201B5002000F005F802BD95
:100920000029F8D016E770477047C046F0B5574623
:100930004E46DE464546E0B544024300C60F83B04E
:100940000F1C640A1B0EB24653D0FF2B27D0802207
:10095000E400D20414437F2252429046984400237C
:1009600099469B467D027800FB0F6D0A000E0093AE
:1009700024D0FF2846D080230021ED00DB041D4356
:100980007F384746381A4F460F43BF00B9463300F9
:10099000009A874F53404A46BA5801939746002C15
:1009A0004ED108239946F7339846FD3B9B467D027E
:1009B0007800FB0F6D0A000E0093DAD1002D26D1CE
:1009C000002001213300009A7A4F53404246101A0A
:1009D0004A460A439200BA581D009746009B2C00D5
:1009E0009A468B465B46022B31D15346FF210024A9
:1009F00038E0002C17D10423994600239846013390
:100A00009B46AFE7FF20002D0BD10221DAE728003B
:100A100000F07EFD431F9D4076235B42181A0021A3
:100A2000AFE70321ADE7200000F072FD431F9C40BB
:100A300076235B421B1A9846002399469B4691E712
:100A40000C239946F3339846FC3B9B468AE7032BDD
:100A500000D1A5E05546012B00D081E00123002103
:100A600000242B406402C905600ADB0708431843D1
:100A700003B03CBC90469946A246AB46F0BD8024EC
:100A80000023E403FF21EDE7FF210024EAE701232F
:100A9000591A1B2966DD019A134000210024E1E761
:100AA0008023DB031C4238D01D4251D01C4364021A
:100AB000640A3300FF21D5E763016C01A3423BD2F6
:100AC0001B260021013801251F0049005B00002F73
:100AD00001DB9C4201D81B1B2943013E002EF3D1B0
:100AE0001C00631E9C410C4301007F310029CEDDB8
:100AF000630704D00F232340042B00D004342301C8
:100B000003D501002C4B80311C40FE290DDD012353
:100B1000019AFF2113400024A4E78023DB031C4338
:100B20006402640A3300FF219CE70123019AA401B7
:100B3000640AC9B2134095E71B1B1A260121C2E7BC
:100B4000009B8B469A4600244CE76302E5D50025BE
:100B50008024E4032C436402640A009BFF2181E7A4
:100B60000195C1E723002020CB40411A8C40611E33
:100B70008C411C43630704D00F232340042B00D077
:100B80000434630105D50123019A01211340002497
:100B900068E70123019AA401640A1340002161E778
:100BA0008023DB031C436402640A5346FF2159E798
:100BB000FC1500003C160000FFFFFFF74102430058
:100BC000C20F490A1B0E00207E2B0DDD9D2B0CDC75
:100BD000802000040143952B0ADC9620C31AD940DB
:100BE0004842002A00D108007047034BD018FBE7A9
:100BF000963B9940F4E7C046FFFFFF7FF0B55746AC
:100C00004546DE464E46E0B54C000E0387B08346AF
:100C100092461D008046360B640DCF0F002C4FD03E
:100C20006F4B9C4235D08023420F1B04F6001343C8
:100C300033439946C30098466A4B00269C460023DE
:100C4000644403932B031B0B9B466B00ED0F504634
:100C50005B0D01955ED0624A934253D05A46D10053
:100C60008022400F120402430A4393465246D100A9
:100C70005C4A9446002263443800684084460290EF
:100C8000E41A16430F2E00D9B4E0574BB6009B5917
:100C90009F460300334399466CD1002398460233A4
:100CA00008260393CEE7CB464146039A0197022AD2
:100CB00065D1019B4A4C9C460023002298466BE07C
:100CC0000300334399464ED0002E00D1BCE13000E2
:100CD00000F01EFC03000B3B1C2B00DDACE11D22D1
:100CE000D31A5A460100DA4008398E4013003343C4
:100CF00099465B468B40984600233C4C0026241ABC
:100D000003939FE751465A46114329D10022934647
:100D10000232B1E7594601431ED05B46002B00D199
:100D20009EE1584600F0F4FB03000B3B1C2B00DD5A
:100D30008FE102005946083A91408B461D21CB1A9B
:100D40005146D9400B0059460B4351469B469140B2
:100D5000264B00221B1A8FE7002301229B468BE7BC
:100D60005146032288E700239846013304260024D5
:100D7000039367E70323B14603930C2662E7032A34
:100D800000D15CE2019B012A00D0E4E113409C46C3
:100D9000002300240022984600211203130B0A0DA1
:100DA00012051A432305124C404622401343624663
:100DB0005B00D2075B081343190007B03CBC9046A8
:100DC0009946A246AB46F0BD002380229C46120302
:100DD0009846034CE0E70023014C00229846DBE7ED
:100DE000FF07000001FCFFFF7C1600000DFCFFFF69
:100DF000FFFF0F80D94500D939E100D134E100234C
:100E000046464D469A46013C5B460A0E1B021A4373
:100E10000B02170C039313041B0C39002800904697
:100E2000019300F0EBFA0200019B83465A4328002D
:100E30003900914600F068FB350C09040D43A945C3
:100E40000DD95B464544013BA84500D93AE1A94587
:100E500000D837E102235B429C464544E3444B46BD
:100E6000EB1A39001800049300F0C8FA019B050042
:100E7000434339000498994600F046FB33040904C3
:100E80001B0C0B43994509D943446A1E984500D968
:100E90001AE1994500D817E1023D43444A469B1A9E
:100EA0005A4612042A4303999346100C0A0C9146A1
:100EB00009045A46090C4E460D001204120C454313
:100EC000059151437243704352190E0CB21895426A
:100ED00003D980256D02AC466044150C0904120448
:100EE000090C28185218834200D2CEE000D1C8E085
:100EF0001D1A53469E1AB24592415242AB1A9A4667
:100F0000984500D117E13900180000F077FA019BED
:100F10000500434339005046049300F0F5FA049865
:100F20000B04310C1943884209D941446B1E884592
:100F300000D907E1884200D804E1023D4144049B06
:100F4000CB1A18003900049300F058FA019B82462E
:100F5000434339000498019300F0D6FA01980B043A
:100F60003104090C194388420DD953464144013BD1
:100F7000884500D9E8E0884200D8E5E002235B42DA
:100F80009C464144E244019B2D04CE1A514629431C
:100F9000059D4F462A000B04080C1B0C5A43454381
:100FA0007B4378435B19170CFB189D4203D98025BE
:100FB0006D02AC4660441D0C12041B04120C281870
:100FC0009B18864200D293E000D18EE001231943A2
:100FD000A04BE318002B00DC99E04A0700D09EE00C
:100FE0005A46D20106D55A469B4B1A408023934657
:100FF000DB00E318994A934268DD0123029A984C7A
:101000001A400023944698460022C5E680224B46AB
:10101000120313420AD05B46134206D11A4312034D
:10102000120BAC4688468E4CB6E64B461A4312036A
:10103000120BBC468A4CAFE603005A46283B9A4046
:1010400000239146984657E6584600F061FA203052
:1010500040E603005246283B9A400021934677E63B
:1010600000F056FA20305FE6884500D2C7E64B46CE
:10107000DE075D0843465B081E434346DB079A468E
:10108000C2E60025924500D333E7039E5946B44695
:10109000E244B245AD416D424544EB1801399845F3
:1010A00007D2984200D97FE000D1BCE01D1A8B46E0
:1010B0001FE79845FAD1039D5545F2D943468B4623
:1010C0001D1A16E79B46CAE61500E7E65A46C90808
:1010D00052070A435B0590465C0D5A46012302996C
:1010E00052021940120B8C4656E6002B00D16FE7D6
:1010F00046444A1EB04529D91100864200D065E712
:10110000039A934200D061E762E70121494201203E
:10111000C21A382A21DD029B03409C4638E60F2282
:101120000A40042A00D15BE70A00111D9142924156
:101130005242934454E7474BE318002BE5DD01226C
:101140005242F2E71D00FAE69A461CE7B04239D84F
:101150006ED011003AE702933AE71F2A3CDC2023C5
:101160009B1A0C005846994098404B1E99415B468B
:10117000D440D340204308431A00430709D00F232B
:101180000340042B05D00100081D88429B415B42AF
:10119000D21813023AD50123029A01241A400023DF
:1011A000944698460022F7E5022149428C46039D69
:1011B000E344AC46E244AA45AD416D424544ED18D6
:1011C0002D1A96E68A1E03994D008D4289414942A7
:1011D0004144761803958FE71F204042C31A5846B2
:1011E000D8400300202A28D040205D46821A95402E
:1011F00029434A1E91411943072300220B4009D07D
:101200000F2300220B400800042BBDD1010053071F
:101210005202120BC908194301238846029900247F
:1012200019408C46B8E55245BED88B46002560E68D
:10123000039D9D42C6D3110062E70025D8E78022B6
:101240005B4612031A43019B1203120B9C4688460D
:10125000034CA1E5FF030000FFFFFFFEFE070000B7
:10126000FF07000070B5002830D0C317C4185C40D9
:10127000C50F200000F04CF9174B184A1B1AD21A60
:101280001F2A18DD164AD21A9440002224035B0557
:10129000240B5B0D0021100024030A0D240B120502
:1012A0002243104C1B05224013435B00ED075B08F3
:1012B0002B43190070BD210091400A000B21081A30
:1012C000C4405B052403240B5B0DE3E700250023EA
:1012D00000240022DEE7C0461E04000033040000A4
:1012E00013040000FFFF0F80F0B54C00640D0B03EA
:1012F000621C450F5B0A52052B43C90FC500520DF6
:10130000012A28DD3A4AA618FE2E1BDC002E3EDDFF
:1013100080010200501E82416D0F2A43DB001343FF
:101320005A0704D00F221A40042A00D00433802226
:10133000D2041A405AD00136FF2E03D09B015B0A1B
:10134000F4B201E0FF2400235802E405400AC90773
:1013500020430843F0BD002C07D01D43F2D080206D
:10136000DB0080040343FF26DAE72B4303D0052389
:10137000DB08FF2C03D05B025B0AE4B2E4E7002B3E
:1013800032D08020C00303435B025B0ADCE73200FB
:10139000173214DB80221E2712041343BF1B1F2F9A
:1013A0000FDC144A944664442A00A5402E00A34052
:1013B000751EAE41FA40334313430026B0E70024C4
:1013C000D5E702225242961B1A00F240202F09D084
:1013D000094884466444A3402B435D1EAB4100266C
:1013E00013439DE70023F7E70023ADE73400BFE791
:1013F00080FCFFFF82FCFFFFA2FCFFFF00224308EE
:101400008B4274D303098B425FD3030A8B4244D3CC
:10141000030B8B4228D3030C8B420DD3FF2209020E
:1014200012BA030C8B4202D31212090265D0030BCD
:101430008B4219D300E0090AC30B8B4201D3CB03C3
:10144000C01A5241830B8B4201D38B03C01A524105
:10145000430B8B4201D34B03C01A5241030B8B4207
:1014600001D30B03C01A5241C30A8B4201D3CB02F2
:10147000C01A5241830A8B4201D38B02C01A5241D7
:10148000430A8B4201D34B02C01A5241030A8B42DA
:1014900001D30B02C01A5241CDD2C3098B4201D3F2
:1014A000CB01C01A524183098B4201D38B01C01A70
:1014B000524143098B4201D34B01C01A52410309E7
:1014C0008B4201D30B01C01A5241C3088B4201D396
:1014D000CB00C01A524183088B4201D38B00C01A43
:1014E000524143088B4201D34B00C01A5241411A6A
:1014F00000D20146524110467047FFE701B5002077
:10150000FFF712FA02BDC0460029F7D076E7704710
:101510001C2101231B04984201D3000C10391B0A23
:10152000984201D3000A08391B09984201D30009E7
:10153000043902A2105C40187047C046040302023E
:101540000101010100000000000000005065726907
:101550006F64206D6561737572656D656E7420755D
:1015600073696E6720746865205379737469636B5F
:1015700020667265652072756E6E696E6720636F96
:10158000756E7465722E0D0A436F6E6E65637420FE
:101590007369676E616C20746F2050494F305F3102
:1015A000202870696E203132292E0D0A00000000BB
:1015B000663D0000487A2C20636F756E743D000014
:1015C0000D0000004E4F205349474E414C20202033
:1015D000202020202020202020202020202020200B
:1015E00020200D000D0A00003031323334353637FB
:1015F000383941424344454600000000B80A000023
:10160000880A00009A0A0000DC0900009A0A00001B
:101610007E0A00009A0A0000DC090000880A000027
:10162000880A00007E0A0000DC090000E4090000CE
:10163000E4090000E4090000A00A0000880A000094
:10164000880A00005C0A0000400B00005C0A0000F1
:101650007E0A00005C0A0000400B0000880A0000BF
:10166000880A00007E0A0000400B0000E409000028
:10167000E4090000E40900004A0B0000F40D00003A
:10168000D60D0000900D0000AE0C0000900D000083
:10169000C80D0000900D0000AE0C0000D60D00003B
:1016A000D60D0000C80D0000AE0C0000A60C000016
:0C16B000A60C0000A60C00000C100000AE
:04000003000000C039
:00000001FF
